:020000040800F2
:1000000048110020D5000008E11D0008351B00083C
:1000100000000000000000000000000000000000E0
:100020000000000000000000000000001D22000889
:100030000000000000000000A92100081F220008A5
:10004000E7000008E7000008E7000008E7000008F4
:10005000E7000008E7000008E7000008E7000008E4
:10006000E7000008E7000008E7000008E7000008D4
:10007000E7000008E700000800000000E7000008B3
:1000800000000000E7000008000000000000000081
:10009000E700000800000000E7000008E700000893
:1000A000E7000008E7000008E7000008E700000894
:1000B000E7000008E7000008000000003D2F0008EE
:1000C0000348854600F02AF80048004779300008C8
:1000D000481100200448804704480047FEE7FEE737
:1000E000FEE7FEE7FEE7FEE7B9220008C1000008D0
:1000F00030B50B46014600202022012409E00D46C0
:10010000D5409D4205D31D469540491B2546954047
:1001100040191546521E002DF1DC30BD064C01255C
:10012000064E05E0E36807CC2B430C3C984710349F
:10013000B442F7D3FFF7C8FFC4300008E43000082A
:1001400070B58C180578401C6B075B0F01D10378E4
:10015000401C2A1106D10278401C03E006780E707C
:10016000401C491C5B1EF9D12B0705D40023521EED
:100170000DD40B70491CFAE70378401CCB1A921C73
:1001800003E01D780D70491C5B1C521EF9D5A1427D
:10019000D8D3002070BD00207047002070470000B9
:1001A00010B500220549064802F091F903490448B8
:1001B000091F02F083F9002010BD00002D0000206F
:1001C000D001002010B50146044802F077F9034839
:1001D00002F050F90248007840B210BDD001002072
:1001E0002800002031B500F0CBF8044600F0C8F834
:1001F0000099001B8842F9D338BD0000F8B50023F0
:100200000124A2E027469F403A4070D04D68022D5D
:1002100001D0122D14D1DD08AD002D1800952D6AE6
:100220005E07AC46F50E0F26AE46AE406546B543BA
:10023000AC460E697546AE4065462E43009D2E6263
:100240004D68012D05D0022D03D0112D01D0122DA6
:1002500016D185680326AC465D00AE46AE406546C5
:10026000B543AC46CE687546AE4065462E438660C3
:1002700046680D79BE43ED06ED0F9D403543456060
:1002800006685F000325BD40AE46AE430D79B44617
:10029000AE07B60FBE4065462E430660C66875467B
:1002A000AE438D68BD403543C5604D68ED004BD50C
:1002B000294D6E6B26436E639E08284DB600751956
:1002C000AC46AD689E07360F0F27B740BD430527E4
:1002D0003F07B84201D1002715E0214FB84201D1B4
:1002E000012710E01F4FB84202D102270BE02BE09C
:1002F0001D4FB84201D1032705E01C4FB84201D180
:10030000052700E00627B7402F436546AF60184D2C
:100310002E684F689643FF0300D516432E606E6823
:100320004F689643BF0300D516436E60AE684F68B2
:100330009643FF0200D51643AE60EE684F689643C1
:10034000BF0200D51643EE605B1C0A681546DD400F
:1003500000D057E7F8BD0000001002400000014047
:100360000004005000080050000C0050001C005019
:1003700000040140002A01D081617047816270470A
:1003800001480068704700000000002070B5024678
:1003900040325378202B1CD11378012B19D0012324
:1003A000137024245470046825689D4325600468F4
:1003B00025681E03B5432560046825680D43256044
:1003C00000680168194301602020507000201070FF
:1003D00070BD022070BD70B5024640325378202BAC
:1003E0001BD11378012B18D00124147024235370CF
:1003F00003681D68A5431D6005682B680F2636023B
:10040000B343090219432960006801682143016070
:10041000202050700020107070BD022070BD0000C0
:1004200070B5040006D025464035687800260028BF
:1004300002D005E0012070BD2E70204600F0D6F8F5
:1004400024206870206801684908490001600F2174
:100450006068090688432168086121688A6801206C
:10046000C00382438A60E1680129A16808D0212283
:100470009202114322689160E168022902D005E0EE
:100480000143F7E701212268C902516021684A68E7
:100490000F4B1A434A602168CA688243CA60616987
:1004A00020690843A169090208432168C860216ADC
:1004B000E06908432168086020680168012211434F
:1004C00001606664202068702663AE70002070BDF5
:1004D00000800002FFB5054604464035687881B0CB
:1004E00020287ED1287801287BD001202870FFF7B2
:1004F00047FF0746012200901923D103204601F04F
:1005000077FB00283FD1212068701020A8700026BA
:10051000666403986062049860856663618D01205B
:100520004003FF2903D9FF222285009034E0618D2A
:100530002185009036E02046029901F047FB36E025
:1005400001F0A1FB002803D0606C042847D01AE01A
:10055000606A411C6162017820688162608D401E82
:100560006085208D401E0004000C20851FD1608D09
:1005700000281CD000970022802120460A9B01F011
:1005800037FB002802D0032005B0F0BD608DFF28A6
:1005900005D9FF222285009601231B06CBE7608D3B
:1005A00020850096208D0123C2B25B06C3E7608DD3
:1005B0000A9900283A462046C2D101F03DFB0028A6
:1005C000C2D121682020C86121684A68064B1A40C0
:1005D0004A606870AE702E700020D5E701E00120FF
:1005E000D2E70220D0E7000000E800FE00B5006876
:1005F0000C4985B0884212D1C02000901220012100
:100600000190032002910491039069460648FFF788
:10061000F5FD0648816B012252051143816305B047
:1006200000BD0000005400400004005000100240D3
:1006300002480168491C016070470000000000206A
:1006400010B506480168402211430160002000F007
:1006500007F800F019F8002010BD0000002002404B
:1006600010B5044607487D21C9000068FFF740FD2A
:1006700001F044FA00222146501E00F02BF8002021
:1006800010BD00006800002010B50C48416B01222D
:1006900011434163816B02041143816300221146BF
:1006A000501F00F017F800221146901E00F012F8BB
:1006B00000221146501E00F00DF810BD001002403F
:1006C000C106C90E0120884001490860704700003A
:1006D00000E100E010B501F085FB10BD0168FF30BE
:1006E000FF300122023040318262088B10430883C0
:1006F000088B022210430883002070470168FF30F6
:10070000FF30012202300023426203774031888AA1
:1007100010438882888A02221043888218467047D4
:10072000704710B50C0606D54906490E1C246143D6
:100730000818283004E01C2461430818FF300930F1
:1007400099B2002A06D001228272C180190C01815F
:10075000002010BD002282728180F9E71C224A43EA
:10076000121810B5FF30FF300230926BC06A02F0F1
:1007700086F810BD1C224A43121810B5FF30FF3214
:10078000FF30013202309269C06A02F0D3F810BD26
:10079000F0B54B065B0E1C461C225343CD091A18BC
:1007A000002D01D0283201E0FF32093203461470D7
:1007B000C909FF335170E133197A01293DD0012174
:1007C0001972947A4C49002C547838D0002C147843
:1007D00005685FD0A4002E5B760404D52E5B474FDE
:1007E0000E403E432E5314780568A4002E5B760617
:1007F00004D52E5B424F0E403E432E5314780568BD
:10080000A4002E5B0E403D490E432E53117806681E
:100810008D00715B384C30342140394C403C2143D1
:100820007153016810788200885A344DF13D284098
:100830002043885200201872F0BD0220F0BD002C29
:1008400011D014780568A4002E5B760604D52E5BC3
:100850000E402B490E432E53046810788100605AD5
:10086000254A303210E015780468AD00665B7604E6
:1008700004D5665B0E4021490E4366530468107828
:100880008100605A1D4AF13A10401D4A403A104317
:100890006052CFE7A4002E5B760404D52E5B174F81
:1008A0000E403E432E5314780568A4002E5B760656
:1008B00004D52E5B124F0E403E432E53147805682C
:1008C000A4002E5B0E400E490E432E53117806688D
:1008D0008D00715B094CF13C2140094C403C2143A7
:1008E0007153056810788100685A034A303210400D
:1008F000204368529EE700008F8F000080C00000F8
:10090000C0800000F0B54B06CA095B0E002A04D077
:100910001C225A431218283204E01C224A4312189F
:10092000FF3209320024947013700346C909FF3363
:100930005170E133197A01291DD0012119725178C2
:100940001B4E00291B4C1178056816D089006F5A80
:100950007F0605D56F5A3740164E403637436F52E3
:10096000117800688A00815A114D303529401025D0
:100970006940202515E00220F0BD89006F5A7F04F0
:1009800004D56F5A37400C4E37436F5211780068C8
:100990008A00815A084DF13D294001252D03694007
:1009A0006D0069402143815200201872F0BD0000A3
:1009B0008F8F00008080000080C000004906490E33
:1009C0001C2251430818FF300130008C80B2704760
:1009D000F0B54D066D0E2E461C246543CF092C182C
:1009E000002F01D0283401E0FF3409342670C909F2
:1009F00061700146FF31E260E131E3708C46097AB3
:100A000001290DD0012261460A72E2789A49002A32
:100A100008D0012A1FD0022A0ED0032A24D112E0C6
:100A20000220F0BD237802689D00535B0B40FF332A
:100A3000FF330233535317E02278036892009D5A24
:100A40000D409D5210E0237802689B00D55A0D405E
:100A50000321490206E0237802689B00D55A0D4025
:100A6000012189026918D152237806689D00725BC2
:100A700082490A4082490A431A437253A27A002AE1
:100A800059D02278076895007B5B7C4A7D4E1340E5
:100A900033437B53E38850265D0803686D00F65AA4
:100AA000F6182378DF0001239B02FB18F5522389F7
:100AB00050265D0803686D00F65AF6182378DF00AB
:100AC0004B11FB18F55263780768002B23787BD015
:100AD0009B00FD5A6D0404D5FD5A6B4E15403543FD
:100AE000FD52237807689B00FD5A6D0605D5FD5A17
:100AF000634E154040363543FD5225780368AD00FE
:100B00005E5B1640604A16435E5322780368950088
:100B10005A5B5A4E303632400A435A5302682078A4
:100B20008300D05A584CF13C20400843D05200205A
:100B300061460872F0BD6278002AA28821D053086D
:100B400002685025AD5A5B00AD182278D60001220C
:100B50009202B218AB522278036892009D5A6D0639
:100B600006D59D5A454E3540454E403635439D523B
:100B7000026820788300D05A404C30342040202432
:100B800042E0530802685025AD5A5B00AD18227848
:100B9000D6003E4AB218AB52026850239B5A3B4DD6
:100BA0009A182378AD1CDB005B19D518E2683E2A41
:100BB0000BD9D3021B0CD20601D15B1E9BB29A0249
:100BC0000123DB031A4307E020E0D3031B0CD20709
:100BD00001D05B1C9BB29A022A80227803689200A3
:100BE0009D5A6D0405D59D5A244E3540264E3543F9
:100BF0009D52026820788300D05A234CF13C20405B
:100C0000012424036040640060408EE79B00FD5A8D
:100C10006D0404D5FD5A1C4E15403543FD52237812
:100C200007689B00FD5A6D0605D5FD5A144E154008
:100C300040363543FD5225780368AD005E5B1640B3
:100C40000F4A403216435E532278036895005A5B80
:100C50000D4EF13E3240012636037240760072405E
:100C60000A435A53036820788200985A034C303460
:100C70002040084398525AE78F8900008F8F000068
:100C8000808000008081000080C00000040400001B
:100C9000F0B54906490E1C244C432418FF3409348E
:100CA000636122610022A26103466270FF332170FA
:100CB000E133197A012908D0012119726569E168C7
:100CC0008D4204D96D1A656103E00220F0BD29460A
:100CD0006261A57A002D05D06578002D19D0012D0F
:100CE00037D059E005685026765B76192578EF00F5
:100CF000324D7D1976193E293ED9CD022D0CC906FB
:100D000037D0A9020125ED03294300E0A902318073
:100D100042E005685026765B76192578EF00274D6E
:100D20002D1F7D1976193E290AD9CD022D0CCF062B
:100D300001D16D1EADB2AD020127FF033D4306E0B8
:100D4000CD032D0CCF0701D06D1CADB2AD023580A7
:100D500009E005685026765B76192578EF00174D77
:100D60002D1F7D1971536578002DBBD0012D0AD040
:100D700012E06D1EADB2C4E7CD032D0CC907C5D07E
:100D80006D1CADB2C2E705685026765B76192578F2
:100D9000EF000A4D7D197153217800688C00015BCA
:100DA000074D294001252D0369406D006940054D1F
:100DB000294301531A720020F0BD00000604000010
:100DC0008FBF000080800000F0B50246FF32E132A4
:100DD000137A012B0BD001244F06CB097F0E14721E
:100DE000002B06D01C237B431B18283306E002206F
:100DF000F0BD1C234B431B18FF3309339C701F703D
:100E0000CE095E70012424031025114B002F0BD056
:100E10004906C90D002E10D00468605A0D4E3040AE
:100E200068401843605210E0006801880A4E314063
:100E3000614069401943018007E00568685A064E21
:100E4000303E304060401843685200201072F0BDC0
:100E500080800000BF8F0000BFBF0000F0B50646D5
:100E60004806400E1C2141438C19E3630021A26314
:100E700021640121283437466170FF372070E13743
:100E8000387A012806D03972E5686069A84203D92A
:100E9000401B03E00220F0BD054600206061A07AFF
:100EA000002807D060780121C903002812D001284A
:100EB0002DD061E0ABB2A2882169306801F061F900
:100EC00030685021095A09182078C2004548101886
:100ED0000D5274E030685022125A12182078C30064
:100EE0004048181812183E2D08D9E802000CEB06ED
:100EF00001D1401E80B28002084306E0E803000CE6
:100F0000EB0701D0401C80B28002108008E03068FE
:100F10005022125A12182078C3003248181815525D
:100F2000304A6078121D002802D001281CD023E02E
:100F3000306850231B5A18182378DB009A1882183F
:100F40003E2D08D9E802000CEB0601D1401E80B20C
:100F50008002084306E0E803000CE90701D0401CCA
:100F600080B28002108007E030685021095A0818CA
:100F70002178C90089184552217830688900415A82
:100F8000490601D5228900E0E288ABB2216901F06F
:100F9000F8F860781449002802D0012807D00EE044
:100FA000207832688000135A0B40104905E0207801
:100FB00032688000135A0B400D490B4313522078BE
:100FC00031688200885A084B30331840102358404B
:100FD00020235840054B403B18438852002038726C
:100FE000F0BD0000020400008F8F0000C0800000F0
:100FF00080C00000F8B50446006840308088C00B0F
:1010000002D0204600F010FF20684030818849055A
:101010000AD58188504A11408180204600F01CF991
:101020000021204600F042F92068403081884904C0
:1010300003D58188494A11408180206840308188E9
:10104000890403D58188464A114081802068403058
:101050008188E51DFF35C9040426FA35002920DA08
:101060000188B1430180BF2021680002403108801F
:10107000E06901280CD101212068002269622A77E9
:101080004030828A0A438282818A0222114381820D
:10109000204600F0EDF8206840308188314A114048
:1010A000818020684030818808270905002916DAE8
:1010B00081882D4A11408180206840300188394361
:1010C0000180206840300188314301802068403031
:1010D0008088C043C00402D5204600F011F9206882
:1010E00040308188090609D5828880218A43828020
:1010F000287F002818D0204600F002F920684030F0
:101100008188890506D58188184A1140818020464A
:1011100000F0C4F8206840308188C90503D5818873
:10112000134A11408180F8BD206840300188314366
:1011300001802068403001883943018001202877F0
:1011400020684030808A3C218008084028620121C4
:101150002046FFF7E5FAD1E7FFFB0000FFBF0000E4
:10116000FFDF0000FFEF0000FFF70000FFFD0000C1
:10117000FFFE0000F8B500270446002807D02646E9
:10118000FF36E136707A0025002802D005E0012004
:10119000F8BD3572204600F047F803207072012137
:1011A0000BE01C2078430219104620304172077270
:1011B000C572556395637F1CD5636068B842F0D8EB
:1011C00000200BE01C2242431219FF3201325572FB
:1011D0001072D57255619561401CD561626882427A
:1011E000F0D82068403001802068403005802068B9
:1011F00040308580206840300582BF202268000290
:1012000040321080242005557172E069012802D116
:101210002046FFF773FA206A012802D12046FFF723
:101220005DFA0020F8BD000010B50068084988424A
:101230000DD10848816B0122D20511438163002240
:1012400011461F20FFF746FA1F20FFF739FA10BD9D
:10125000005C00400010024010B5C41DFF34FA3499
:101260000121E06A01F06BFCE06A01F030FC10BD86
:1012700010B504468069002806D007480169062297
:101280009143016100F0D2FFFF34FF340234E06A81
:1012900001F040FC10BD000000ED00E0FF3010B593
:1012A000FF300230C06A01F03BFC10BD0246FF3245
:1012B000E132137A012B08D001231372002906D0E2
:1012C00020300171002010727047022070470068C2
:1012D000802140308181F5E710B58B2189000A58C3
:1012E0000146FF31ED31104601F03FFC10BD0068B2
:1012F0004030018B0122D20311430183002070474B
:1013000010B50446FF30FF300230C06A01F082FCA5
:10131000A069002804D00348016906221143016135
:1013200010BD000000ED00E0F8B504460078594D0E
:10133000800672D5574E0027403EB06BC00004D4E3
:10134000B06BA9050843B063012753480168C9057C
:1013500011D40168821511430160FFF711F8009064
:1013600005E0FFF70DF80099401A642837D84A487D
:101370000068C005F5D532680321090560680A4098
:101380000140914208D08103890F032904D13168BB
:10139000890301D50120F8BD2A69032109040A4007
:1013A00022D0084090421FD0207880061CD52869A2
:1013B0002A6988430121C9040A432A612A698A43A8
:1013C0002A612861C0050FD5FEF7DAFF009008E01A
:1013D000FEF7D6FF0099411A3048814201D9032017
:1013E000F8BD28698005F3D561688803800F03285C
:1013F00005D132680005824301400A433260286902
:10140000032261681204114008432861002F04D0B0
:10141000B16B012000078143B1632078C00705D07C
:10142000E868A168800880000843E86020788007A9
:1014300005D5E8680C218843E1680843E860207816
:10144000400706D5E86803218902884321690843DB
:10145000E8602078000706D5E8680321090388437F
:1014600061690843E8602078400606D5E8680121F4
:1014700089068843E1690843E8602078000606D5BC
:10148000E868032189048843A1690843E8600020D3
:10149000F8BD0000401002400070004088130000BA
:1014A000F8B5054653480E460068C007C00FB04265
:1014B0000AD2504801684908490031430160006878
:1014C000C007C00FB0426FD128784B4C800705D5BC
:1014D000E068F0218843A9680843E0602878C007E5
:1014E00052D06868022817D0032818D02168012834
:1014F00018D08905002957DAE16889088900014375
:10150000E160FEF73DFF69680746022912D0032912
:101510001CD0012926D033E021688903EAE721683D
:101520008901E7E74907E5E7FEF72AFFC11B3348D2
:10153000814223D8E0680007800F0228F4D123E01D
:10154000FEF71EFFC11B2D48814217D8E068000737
:10155000800F0328F4D117E0FEF712FFC11B2748C4
:1015600081420BD8E0680007800F0128F4D10BE01E
:10157000FEF706FFC11B2148814201D90320F8BDB7
:10158000E0680007800FF3D11A480168C907C90F46
:10159000B1420BD901684908490031430160006834
:1015A000C007C00FB04201D00120F8BD2878400725
:1015B00006D5E068072109028843E9680843E0602E
:1015C0002878000707D5E0680721C9028843296900
:1015D000C9000843E06000F01DF8E168084A090608
:1015E000090F515CC840074908600020FFF738F830
:1015F0000020F8BD002002400010024088130000C7
:10160000A83000086800002001480068704700000A
:101610006800002010B5184AD1680C200840042842
:101620000BD0082810D00C2810D050680004410FAF
:101630000120C003491C884010BD1068C00601D5B8
:101640000E4810BD0E4810BD0E4810BD88020E4B4E
:10165000000F185C0902D368890F491CDB0301D510
:10166000084A05E01268D20601D5044A00E0044A9F
:101670005043FEF73DFD10BD0010024000093D0043
:101680000024F40000127A00B8300008F8B50446CF
:101690000078FE4DC0074AD0E8680007800F022896
:1016A00007D0E8680007800F032809D1E868C00365
:1016B00006D5286880033AD56068002873D036E0E4
:1016C000012062680004824203D129680143296035
:1016D00011E0052301211B0489049A422A6802D1E2
:1016E0000A432A60F1E782432A602A680240009296
:1016F000286888432860606800280CD0FEF740FE08
:10170000064604E0FEF73CFE801B64287ED828686D
:101710008003F7D50BE0FEF733FE064604E0FEF744
:101720002FFE801B6428F1D828688003F7D4207826
:10173000800741D5E8681F270007800F3F02012876
:1017400007D0E8680007800F032809D1E868C003C4
:1017500006D42868400717D5E068012823D113E094
:10176000E068002817D029680922914301432960C5
:10177000FEF706FE064604E0FEF702FE801B022886
:10178000C4D828684007F7D568682169B8430902BA
:101790000843686010E02868400840002860FEF7B1
:1017A000EFFD064605E095E0FEF7EAFD801B022806
:1017B000ACD828684007F7D42078C00672D5E8680E
:1017C000B34E0007800F0AD0E06900282868B149AD
:1017D0005AD008432860FEF7D3FD074644E0286846
:1017E000800502D5E069002874D0606A69683140DC
:1017F000884212D900F0DAFC0028AFD16868616A2B
:10180000B043084368606868000200E0DCE0218CB7
:10181000000A0906084368600FE06968B1430143A4
:1018200069606868218C0002000A09060843686044
:10183000606A00F0BBFC002890D1606A410B012077
:10184000C003491C8840E96809060A0F9249895C6F
:10185000C840924908600020FEF702FF22E0FEF730
:101860008FFDC01B02288BD828688005F7D56868D3
:10187000616AB043084368606868218C0002000A0E
:101880000906084368600DE088432860FEF778FD8C
:10189000064604E0FEF774FD801B022888D82868FD
:1018A0008005F7D420787E4E000723D56069002894
:1018B000306910D0012108433061FEF761FD074611
:1018C00004E0FEF75DFDC01B02287DD8306980076B
:1018D000F7D50FE001E1400840003061FEF750FD10
:1018E000074604E0FEF74CFDC01B02286CD83069A7
:1018F0008007F7D42078400760D5A86B0027C00088
:1019000005D4A86B012109070843A863012765488E
:101910000168C90511D40168821511430160FEF701
:101920002FFD009005E0FEF72BFD0099401A64287A
:101930004AD85C480068C005F5D55648A26882427E
:1019400003D131690143316111E001218902002A8B
:1019500007D005231B029A4203D132690A43326140
:10196000EFE7326982433261306988433061A068B1
:1019700000280ED0FEF704FD009006E0FEF700FD03
:101980000099411A484881421ED830698005F5D532
:101990000DE0FEF7F5FC009006E0FEF7F1FC009983
:1019A000411A414881420FD830698005F5D4002F93
:1019B00004D0A96B012000078143A9632078800629
:1019C00030D53A48421400E080E0A169002916D0E1
:1019D000AB6801210B43AB606B6B0B436B63016A1C
:1019E00011430162FEF7CCFC064604E0FEF7C8FC9A
:1019F000801B02286AD8A8688007F7D512E0A9687A
:101A000049084900A960016A91430162FEF7B8FCE8
:101A1000064604E0FEF7B4FC801B022856D8A868EE
:101A20008007F7D4A06A002855D0E9680907890F14
:101A3000032952D0012636060228286805D0B04373
:101A40002860FEF79DFC044642E0B0432860FEF7A4
:101A500097FC074604E0FEF793FCC01B022835D82C
:101A600028688001F7D4216BE06AEA680843616B5B
:101A7000FD231B049A4311430843E8602868304360
:101A80002860FEF77DFC044617E0000000100240CD
:101A900000E0000000010000A830000868000020FD
:101AA0004010024000700040881300000000014018
:101AB000FEF766FC001B022808D828688001F7D5CD
:101AC00009E0FEF75DFC001B022801D90320F8BDE8
:101AD00028688001F5D40020F8BD0120F8BD000081
:101AE000042204490428086902D090430861704721
:101AF0001043FBE700E000E070470000094910B523
:101B0000401E884201D9012010BD074C60610321AD
:101B1000081F00F067F90020A06107202061002065
:101B200010BD0000FFFFFF0000E000E010B5FFF770
:101B3000E3FF10BDFEE701688A69D243920701D432
:101B400000228A6200688169C943C90703D081699C
:101B50000122114381617047F7B5044600680E46C3
:101B60008069C043C0062CD4202725464035206814
:101B70008069C04380060FD5701CF8D0002E05D0B8
:101B8000FEF7FEFB0299401AB042F0D96F700020B8
:101B9000A87028700320FEBD21681020C86120684D
:101BA000C7612046FFF7C7FF20684168064A114019
:101BB0004160042060646F700020A87028700120CC
:101BC000FEBD0020FEBD000000E800FE70B5056807
:101BD000049C68688905890D1204044E1143194359
:101BE000304021430143696070BD0000009800FC53
:101BF000F8B51C4617460E46054611E0601C0FD08E
:101C0000002C05D0FEF7BCFB0699401AA04207D96C
:101C10002020403568700020A87028700320F8BD8F
:101C2000286881693046884304D00020B842E5D056
:101C30000020F8BD0120F9E770B516460D460446B0
:101C40001AE0324629462046FFF786FF002801D0D9
:101C5000012070BD002D04D0FEF792FB801BA8422E
:101C60000AD9616C20200143616440346070002017
:101C7000A0702070032070BD20688069C04380067A
:101C8000DFD4002070BD70B516460D4604461CE03A
:101C9000324629462046FFF75FFF002801D0012089
:101CA00070BD681C11D0002D04D0FEF769FB801BAD
:101CB000A8420AD9616C20200143616440346070FD
:101CC0000020A0702070032070BD20688069C04390
:101CD0008007DDD4002070BDF0B51C4887B0C16A14
:101CE00001252943C162C16A29400591C26A0221C6
:101CF0000A43C262C06A164E084005273F07059096
:101D0000002231463846FEF735FB00222B211148D0
:101D1000FEF730FB3F2000246A4631C26946384650
:101D2000FEF76CFA029469463846009601950394D2
:101D3000FEF764FA2B200090029469460195039403
:101D40000448FEF75BFA07B0F0BD00000010024047
:101D5000C08700000004005010B51248104901600F
:101D6000114941600021816001614161816101226D
:101D7000C161C2600162FEF753FB002800D0FEE79C
:101D800000210848FEF702FB002800D0FEE70021F2
:101D90000448FEF720FB002800D0FEE710BD00003D
:101DA00000540040840100205B3D300010B500224B
:101DB0000749084800F024FD0749064800F059FF8C
:101DC0000649044800F070FB024800F0A3FF10BD74
:101DD00034000020D001002048010020180000201D
:101DE000704700008307FF22DB0E9A408907090E27
:101DF000994000280BDA0007000F083883080848CC
:101E00009B001818C36993430B43C3617047830851
:101E100004489B001B1818689043084318607047DB
:101E200000ED00E000E400E0F0B585B004460020DD
:101E30006946888020462030029079E199890F0711
:101E40003F0F24D0BE00815B9980998809046FD52B
:101E5000815BBF4A114081531C2078430519FF352F
:101E60000935A87A002820687DD029788A00825A0E
:101E7000520479D55022125ACB00B649121859187B
:101E8000515A8905890D00916FD0EA88C0E099897F
:101E9000C9062AD40188B04A114001802068502127
:101EA000095A2546283509182878C200A94810186B
:101EB000085A8005800D2064A16B0818A0630021DA
:101EC0002046FEF74BFC029800790028B5D06869DF
:101ED0000028B2D10298007980210843216840315E
:101EE000888102980021017122E12546FF3503888F
:101EF000093569468B80898809051AD5118A091820
:101F00002878C2009348001D1018085A29468305F6
:101F10009B0DAB61AA88E431206800F023F92068AA
:101F200001888B4A114001802046FFF7D5F9FFE078
:101F300095E0694689880904D6D50188844A11400C
:101F4000018020685021095A824E08182978361DD0
:101F5000C9008919405A83059B0DAB610CD0AA8832
:101F60002969206802E033E045E055E000F0FAF826
:101F7000A96928694018286100212046FEF7FAFB6C
:101F800020685021095A08188119E8683E280AD9A2
:101F9000C202120CC00601D1521E92B2900201225E
:101FA000D203104306E0C203120CC00701D0521C3A
:101FB00092B29002088021680888684A1040012285
:101FC0001203504052005040654A10430880AFE071
:101FD0005021095A0A182978CB005E49091D591861
:101FE000515A8905890D009121D0AA882969009B41
:101FF00000F0B8F81BE05022CB00125A55491218D5
:10200000091D5918515A8905890D009104D02A8952
:102010002969009B00F0A6F8287821688200885A78
:102020004D4B803318404E4B403318438852A969BA
:1020300000980818A861296900980A182A616B6934
:10204000002B03D0E9680098814204D92978204602
:10205000FEF790FB03E029782046FEF719FE68465C
:102060008088000664D51C20474320683D19825BA8
:1020700039490A4082532835A87A002812D0287896
:10208000216882008A5A52061FD55022525A51188E
:10209000C20030481018085A83059B0DAB6125D04B
:1020A000EA881FE020685021095A09182878C200E0
:1020B00028481018085A83059B0DAB6121D0AA88C7
:1020C0002969206800F05DF81BE05022525A52182E
:1020D000C1002048001D0818105A83059B0DAB61F4
:1020E00004D02A892969206800F04BF829782068F3
:1020F0008900425A184B80331A40184BF1331A4367
:102100004252206802464030018A88182978114AD4
:10211000C9008918405A8005800DA86129690A18EC
:102120002A616B692978002B20460DD0FEF796FEB8
:1021300020680246403291886B469981090400D597
:102140007CE6002005B0F0BDFEF708FBF0E70000DC
:102150008F0F0000020400000F8F00008FBF0000EF
:1021600080800000101801225B1C92025B0880181E
:10217000002B05D002880A80801C891C5B1EF9D1C7
:102180007047101801225B1C920210B55B08801882
:10219000002B08D04A780C78120222430280801C5F
:1021A000891C5B1EF6D110BD7047000070B5174941
:1021B0000023CA681206120F18D18A6B154CD5007D
:1021C000134A02D51268224009E08E6B01252D07C3
:1021D0002E438E6312688E6B2240AE438E63A24202
:1021E00004D103218903884200D101230A480168F0
:1021F00049084900194301600068C007C00F9842B0
:1022000001D0012070BD002070BD00000010024010
:10221000007000400018000000200240704710B518
:10222000FEF706FAFFF782FC10BD000030B521482A
:102230009BB001680322D2029143C2148918016045
:10224000222000900125102000240490039506957B
:102250000A946846FFF71AFA002800D0FEE70F201C
:102260000E901094119400210F9512940EA8FFF770
:1022700017F9002800D0FEE7482018941390012099
:1022800080061A9013A8FFF74FF8002800D0FEE749
:10229000FFF7BAF97D21C900FDF72AFFFFF72EFCF1
:1022A0000420FFF71DFC00221146501EFEF712FA13
:1022B0001BB030BD0070004010480168821511430A
:1022C0000160C1680E4A1140C16001680D4A1140A9
:1022D0000160816849084900816001680122920417
:1022E00091430160C168FD2212049143C160002145
:1022F00001610549C003886070470000001002407A
:102300000C40FF88F6FFF6FE00ED00E0FF30FF30E6
:1023100002308069002805D00021FF300130416182
:10232000084670470220704770B5C21DFF32FA326E
:102330001546946900F038FBE31DF933D860A869AD
:10234000002807D0E9695868CA6819460C319047D7
:10235000002070BD022070BD70B5044600258121AB
:1023600000F07AFA0121204600F076FA8221204618
:1023700000F072FAFF34FF340234A069002807D05D
:10238000E06940688047A06900F0D2FD0020A061AC
:10239000284670BDFF3010B5FF301A300AC8002B38
:1023A00009D0CC1DF9342078FF2804D09B686278CE
:1023B0009847FF202070002010BD00000A210180F6
:1023C000004870477000002043210180004870479A
:1023D000C000002043210180004870477C0000209D
:1023E000432101800048704704010020F8B50446ED
:1023F000007CFF260025013600282FD04023022232
:102400008121204600F03AFB402302220121204690
:1024100000F034FB082303228221204600F02EFB2B
:10242000FF201D3000F086FDE11DFF31FA3188618B
:1024300000281BD00746C869006880470020FF3786
:1024400001377861B861207C7A68002810D0402379
:102450000121204600F028FB2846F8BD3346022221
:102460008121204600F00AFB3346CEE70125F3E741
:102470003346EDE710B54321C9000958002911D0B2
:10248000027C002A08D0FF3101314A684023012133
:1024900000F00AFB002010BDFF310131FF230133A2
:1024A0004A68F4E7022010BD02460220002904D049
:1024B000FF32FF3202320020D1617047FF30FF301F
:1024C00002308069FF300130416000207047FF30EA
:1024D000FF3002308069FF300130026181600020EE
:1024E0007047000070B50C46C11D0546FF31FA313A
:1024F000207860228E69024021D0202A27D1E288EC
:10250000002A15D0000607D5C96960788B68314666
:102510009847E288314617E0F01D6178F930017084
:10252000A1794170E2883146284600F037F80EE084
:10253000C96960788B6800222146984707E0607877
:102540000A2804D103490122284600F043F800205C
:1025500070BD00006C00002010B58522920012585A
:1025600052689047002010BD134610B50A4600215E
:1025700000F09AFA002010BD134610B50A4600215B
:1025800000F050FB002010BD10B50446802100F083
:102590001BFB0021204600F017FB10BD10B5FF23E8
:1025A0000324F5331C50C31DF9339A60DA601346D7
:1025B0000A46002100F078FA002010BD10B5FF2176
:1025C0000522F5310A5000231A46194600F06CFA2C
:1025D000002010BD10B5FF230224F5331C5082618A
:1025E0001346C2610A46002100F01CFB002010BD0A
:1025F00010B5FF210422F5310A5000231A4619466E
:1026000000F010FB002010BD10B50A46024903A0DF
:1026100000F0D4F8004810BDF403002043444320E8
:10262000436F6E666967000012200880004870479B
:102630005400002010B50A46024903A000F0BEF87D
:10264000004810BDF403002043444320496E7465E4
:1026500072666163650000000420088000487047CE
:102660005000002010B50A46024903A000F0A6F869
:10267000004810BDF403002053544D6963726F6528
:102680006C656374726F6E696373000010B50A46FF
:10269000024903A000F092F8004810BDF4030020A6
:1026A00053544D3332205669727475616C20436FF8
:1026B0006D506F727400000010B50A46024903A005
:1026C00000F07CF8004810BDF403002030303030BA
:1026D000303030303030314100000000F8B50D4668
:1026E00004464988FF300A0AFF300230130000F028
:1026F0002EFC084905091649493E46490069237CD4
:1027000002682AE0217C02264069002905D0C16ABE
:10271000684688470146467040E0816AF8E7C9B2DA
:102720000B0000F014FC0604080F13171E2F00699D
:10273000227C436802E00069227C83686946104677
:10274000984712E00069227CC368F7E70069227CA1
:102750000369F3E70069237C42696946184690479C
:1027600003E00069227C8369E8E7014616E0217CEA
:10277000002907D14069416B68468847F5E7217C0D
:10278000002904D029462046FFF7FEFEF8BD406927
:10279000016B6846884707220146427068460088F8
:1027A0000028F3D0EA88002AF0D0824200D90246FD
:1027B000684602802046FFF70DFFF8BD70B5002384
:1027C00000281CD00446002502E06D1CEDB2641CFC
:1027D0002678002EF9D16C00A41C1480CC5403225E
:1027E0005B1CCA5400245B1C06E0CA545B1CDAB2B2
:1027F0008C54521CD3B2401C0278002AF5D170BD13
:1028000010B5002813D0C31DFF33FA335C69002CC8
:1028100001D000245C61002900D01961FF2101234F
:10282000FD310B54027000F0C7F8002010BD0220EB
:1028300010BD10B5FF30FF3002300024006AFEF7F3
:1028400061F8002806D0012801D0022801D0022416
:1028500000E00124204610BD10B5FF30FF300230EB
:102860000024006AFDF794FF002806D0012801D05B
:10287000022801D0022400E00124204610BDFEB54C
:102880000446FF30E51DE130FF35FA35134601906F
:10289000002908D068694269002A49D00198007F60
:1028A000032843D044E02646FF3681362046716F28
:1028B0001430022934D1C26881680092914207D94C
:1028C000891A81608AB219462046FFF755FE13E047
:1028D000406811460746FDF70BFC002913D100980C
:1028E000874210D3B06F87420DD200221146204696
:1028F000FFF742FE0020B06700231A461946204623
:1029000000F0D2F80CE06869C168002905D0019890
:10291000007F032801D1204688472046FFF74EFE5E
:102920002878012804D10020287001E02046904733
:102930000020FEBD70B50546FF35E1352B4620333E
:1029400016460446002907D058698269002A29D012
:10295000287F032824D025E0FF21F531E01D095907
:10296000FD3003291ED18268C1688A420BD9511AF1
:102970008160C068814200D301468AB23146204658
:10298000FFF7F2FD0EE058690169002904D0287FA5
:10299000032801D1204688472046FFF729FE01E0A1
:1029A00020469047002070BDFF3010B5FF30023048
:1029B000006AFEF703F810BD10B51F49C41DC862B8
:1029C000FF341E49FA341E482162086002220820A2
:1029D0008A6048600020C8608861C8610A61086236
:1029E0000846FEF7C7FB002804D0FF21253115A0BB
:1029F00000F0ACFA002218231146206AFDF791FE80
:102A0000582300228021206AFDF78BFEC02300227C
:102A10008121206AFDF785FEFF2311330022012169
:102A2000206AFDF77EFEFF23013300228221206A07
:102A3000FDF777FE002010BD1409002014070020C8
:102A4000005C00402E2E2F5372632F757362645FFB
:102A5000636F6E662E630000FF30CA09FF304906BF
:102A60000230490E1C23006A59430818002A01D07D
:102A7000203001E0FF300130807A704770B5FF30C0
:102A80001D46FF30023013460024006A2A46FDF737
:102A90009FFF002806D0012801D0022801D002247F
:102AA00000E00124204670BD10B5FF30FF30023039
:102AB0000024006AFEF7ECF8002806D0012801D0B7
:102AC000022801D0022400E00124204610BD70B588
:102AD0000022044640231146FFF7D0FF4025FF2087
:102AE000113005512B46002280212046FFF7C6FFFA
:102AF000FF200121FD3025620155E01DFF30FA3035
:102B00008169002904D040692179426820469047B4
:102B1000002070BDFF30E130417F01770020704719
:102B200010B5FF21FD31095C032906D185218900FB
:102B30000958C969002900D08847002010BD0174D8
:102B40000020704710B5FF30FF3002300024006ACB
:102B5000FEF7ACFB002806D0012801D0022801D0E6
:102B6000022400E00124204610BD70B50446412037
:102B7000C0002018054600F068F82146FF31813179
:102B80000122084680304A67C2898A67007AC106F6
:102B9000C90E0AD001290DD0022910D0C109C901DE
:102BA000204600F011F8002070BD2946204600F0B4
:102BB000B6F8F8E72946204600F09DF9F3E72946E4
:102BC000204600F023F9EEE710B5FF30FF30023069
:102BD0000024006AFEF7F8F8002806D0012801D08A
:102BE000022801D0022400E00124204610BD10B5C7
:102BF000FF30FF3002300024006AFEF778FB002827
:102C000006D0012801D0022801D0022400E00124CE
:102C1000204610BDFF30E130017F4177042101776C
:102C20000020704710B5FF30FF3002300024006AEA
:102C3000FEF714F9002806D0012801D0022801D09F
:102C4000022400E00124204610BD0A7802704A7870
:102C50004270CB788A781B02D21842804B790A796D
:102C60001B02D21882808A79C97909025118C18061
:102C7000704702460020002904D0FF32FF320232A2
:102C8000516170470220704710B58522920012589A
:102C90000224002A04D012689047002800D10024A2
:102CA000204610BD70B50E468978194D044629702E
:102CB000012904D931462046FFF766FC70BD204645
:102CC000FF30E130027F022A15D0032AF2D1002919
:102CD00017D0606888420AD0C1B22046FFF73CFC9A
:102CE000297861602046FFF7CFFF0228E2D0204616
:102CF000FFF77EFC70BD0029F9D0032261600277E6
:102D0000F0E70222027720466160FFF725FCEEE73C
:102D10008001002010B5FFF76AFF002010BDF8B554
:102D200000220092C61DFF364C781746FA3632460E
:102D30000125203A230000F00AF90A3C564150418F
:102D40000906412B2841FFF7C9FC5DE0044688884D
:102D5000002818D1C888002815D18878174646065B
:102D6000107F760E03280ED0BE7731462046FFF73F
:102D7000E9FE2046FFF73CFC002E02D00220387707
:102D800042E03D7740E0204618E0FFF78BFF3BE054
:102D9000CB88012B12D1127F022A02D0032A0DD137
:102DA00004E0012201460831876013E00122011D81
:102DB00010E0127F022A04D0032A02D0FFF7E4FBBE
:102DC00022E0C5607168002901D00321C16001467D
:102DD00002220C31FFF7FEFB16E00446488801286A
:102DE00012D1756009E00446107F022801D0032843
:102DF000C9D14888012807D1776070698268204668
:102E000090472046FFF7F4FB0098F8BDF8B504465C
:102E10000D462878E61D4006FF3600270979800F09
:102E2000FA36012809D06A7830462038002A38D08E
:102E3000012A1ED0032A3DD106E070692946826826
:102E4000204690470020F8BD007F022817D00328B5
:102E50002CD16888002806D1002904D0802902D00E
:102E60002046FFF7B1FE70692946826820469047E8
:102E700013E0007F022802D0032817D104E00029C4
:102E800018D080291AD115E06888002812D1480688
:102E900003D02046FFF7CDFCE5E72046FFF7A8FB6F
:102EA00008E0007F022807D003280BD029462046DF
:102EB000FFF76AFB3846F8BD4806FBD02046FFF70F
:102EC00083FEF7E7C80904D04806400D05191435FC
:102ED00004E04806400D0519FF3505352046FFF78B
:102EE000BBFD002800D00120286002222946204690
:102EF000FFF770FBDEE770B50446FF30E130007F7E
:102F00000D4603280FD1287901280CD88520800090
:102F10000059826820469047E888002806D120465C
:102F2000FFF766FB02E02046FFF72EFB002070BD96
:102F30007047000000487047F405002010B50248B3
:102F4000FEF758F810BD000014070020FEE730B46B
:102F50007446641E2578641CAB4200D21D46635D36
:102F60005B00E31830BC184702E008C8121F08C114
:102F7000002AFAD170477047002001E001C1121FFA
:102F8000002AFBD1704708B5410040180090411E4F
:102F9000009101D30846FAE708BD10B505240121C8
:102FA0002407002289022046FDF7E4F901210022CE
:102FB00049022046FDF7DEF901210022C90320461F
:102FC000FDF7D8F9002240212046FDF7D3F9012270
:102FD00080212046FDF7CEF90520FFF7D4FF00221F
:102FE00080212046FDF7C6F910BD0000F8B5094D57
:102FF0000024661E2860074A00961023121D7E21B9
:103000002868FDF767FA0120FDF7ECF8641C102C26
:10301000F1D3F8BD0400002010B504460C2000F0E8
:1030200005F8204600F002F810BD0000FEB50109C9
:1030300009010B460C336A461371083151710001C6
:1030400001460C310830917100240A4FD07101AD56
:10305000661E00962A1901237E213868FDF73AFA88
:103060000120FDF7BFF8641C042CF2D30120FDF70A
:10307000B9F8FEBD04000020FDF7E2FAFFF7D6F82C
:10308000FEF72AFEFEF768FEFEF790FEFFF785FFCB
:103090000448FFF7ABFF0C20FFF7BEFF0120FFF74E
:1030A000C5FFFEE7840100200000000000000000D2
:1030B0000102030406070809030406080C1018207F
:1030C00030000000E430000800000020840100000F
:1030D00040010008B031000884010020C40F000046
:1030E000782F000881280D2C288C880C08ECE80C1F
:1030F000081C180A13A1011B089B041A97041AC57F
:1031000004C11329261B0859041A65041A8D041AD0
:10311000B9041A09041A3504170403090412011426
:1031200002020216408304405726020102030154A2
:1031300080841E130A0632021A4013111C0902432E
:103140001F1125C03209041B01020B1305241610A0
:1031500001052401100901042402020524061701B7
:1031600007058203081C10090455320A15070501DA
:10317000021A01072A81070938442A40072A8107D1
:10318000112B0907440A2204440A16FF4413ED23B5
:103190001B08590413E52442081A950C1A0D041A49
:1031A0002904C11AD5101AC9041AE1045ABD1C0019
:04000005080000C12E
:00000001FF
